:100000000C9435000C945D000C945D000C945D0024
:100010000C945D000C945D000C945D000C945D00EC
:100020000C945D000C945D000C945D000C945D00DC
:100030000C945D000C945D000C945D000C945D00CC
:100040000C942F050C945D000C949F050C9479057D
:100050000C945D000C945D000C945D000C945D00AC
:100060000C945D000C945D007B0711241FBECFEF44
:10007000D8E0DEBFCDBF12E0A0E0B1E0E4E8F6E1F9
:1000800002C005900D92A031B107D9F722E0A0E19E
:10009000B2E001C01D92A93FB207E1F710E0C5E34D
:1000A000D0E004C02197FE010E943C08C433D10770
:1000B000C9F70E94D3050C94400B0C9400003FB785
:1000C000F8948091210290912202A0912302B09194
:1000D000240226B5A89B05C02F3F19F00196A11D4B
:1000E000B11D3FBFBA2FA92F982F8827820F911DCE
:1000F000A11DB11DBC01CD0142E0660F771F881F15
:10010000991F4A95D1F70895CF92DF92EF92FF920F
:100110000F931F93CF93DF936C017A018B01C0E0A3
:10012000D0E0CE15DF0581F0D8016D918D01D601AB
:10013000ED91FC910190F081E02DC6010995892B8C
:1001400011F02196EECF7E01C701DF91CF911F9173
:100150000F91FF90EF90DF90CF900895089580E089
:1001600090E00895FC01538D448D252F30E0842FBD
:1001700090E0821B930B541710F0CF9608950197CF
:100180000895FC01918D828D981761F0828DDF01B9
:10019000A80FB11D5D968C91928D9F5F9F73928F7A
:1001A00090E008958FEF9FEF0895FC01918D828D6F
:1001B000981731F0828DE80FF11D858D90E008953C
:1001C0008FEF9FEF0895FC01918D228D892F90E094
:1001D000805C9F4F821B91098F739927089585E258
:1001E00092E00E94E30021E0892B09F420E0822FB5
:1001F0000895FC01848DDF01A80FB11DA35ABF4FE4
:100200002C91848D90E001968F739927848FA68915
:10021000B7892C93A089B1898C91837080648C9369
:10022000938D848D981306C00288F389E02D808118
:100230008F7D80830895EF92FF920F931F93CF934A
:10024000DF93EC0181E0888F9B8D8C8D981305C026
:10025000E889F989808185FD26C0F62E0B8D10E096
:100260000F5F1F4F0F731127E02E8C8DE8120CC00B
:100270000FB607FCFACFE889F989808185FFF5CFB1
:10028000CE010E94F900F1CF8B8DFE01E80FF11D28
:10029000E35AFF4FF0829FB7F8940B8FEA89FB89EE
:1002A000808180620AC09FB7F894EE89FF896083DD
:1002B000E889F98980818370806480839FBF81E0B1
:1002C00090E0DF91CF911F910F91FF90EF900895F3
:1002D000CF93DF93EC01888D8823C9F0EA89FB89ED
:1002E000808185FD05C0A889B9898C9186FD0FC0E4
:1002F0000FB607FCF5CF808185FFF2CFA889B989B9
:100300008C9185FFEDCFCE010E94F900E7CFDF9100
:10031000CF91089580E090E0892B29F00E94EF00B2
:1003200081110C9400000895682F85E292E00C94EE
:100330001B01CF92DF92EF92FF92CF936B017C0172
:10034000493010F0C8E01AC0C42F18C024E0C29F82
:10035000C0011124A701960104C056954795379511
:1003600027958A95D2F7DA01C9018F7099278A30CB
:1003700091053CF4805D90E00E949401C15030F7FB
:1003800002C0895CF8CFCF91FF90EF90DF90CF90C3
:1003900008954F925F926F927F928F929F92AF9249
:1003A000BF92CF92DF92EF92FF922B013C01C12CC2
:1003B000D12C7601C394C301B201A70196010E941A
:1003C0000F082A3031054105510548F0AAE0B0E098
:1003D000A70196010E9431086B017C01ECCF8AE0F5
:1003E000882E912CA12CB12CC301B201A70196013A
:1003F0000E940F08CA01B901A50194010E940F08CB
:1004000080E3860F90E00E949401C701B601A50128
:1004100094010E940F0869017A01232B242B252BBC
:1004200019F7FF90EF90DF90CF90BF90AF909F9023
:100430008F907F906F905F904F900895CF92DF9252
:10044000EF92FF926B017C0197FF0CC08DE290E070
:100450000E949401F094E094D094C094C11CD11CEB
:10046000E11CF11CC701B601FF90EF90DF90CF9027
:100470000C94C901CF93DF93EC01892B91F1888112
:10048000882379F190EE980F9F3520F4082E000C08
:10049000990B08C08D3049F48CE590E00E949401DE
:1004A00082E790E00E9494011AC08A3039F48CE50A
:1004B00090E00E9494018EE690E0F4CF8CE590E00D
:1004C0000E94940188E790E00E9494016881062EC2
:1004D000000C770B880B990B42E00E949901219642
:1004E000CECFDF91CF910895CF92DF92EF92FF921E
:1004F0006A017B010E943A028AE390E00E94940123
:10050000C701B6010E941E028AE390E00E94940196
:100510008091C4029091C5020E943A028AE390E061
:10052000FF90EF90DF90CF900C949401CF93DF93E6
:10053000EC018091C2029091C3020E94740285E88E
:1005400091E00E943A02209759F08AE390E00E94DD
:10055000940180E290E00E949401CE010E943A0250
:100560008AE090E0DF91CF910C949401089581335B
:1005700031F481E090E090931B0280931A02089579
:100580004F925F926F927F928F929F92AF92BF92A3
:10059000CF92DF92EF92FF920F931F938090DA0237
:1005A0009090DB02A090DC02B090DD0289288A28BE
:1005B0008B2809F07BC08090DE029090DF02A09033
:1005C000E002B090E10289288A288B2809F06EC0E9
:1005D000621773078407950709F468C049015A0137
:1005E0002B013C01B701A6018091C2029091C30288
:1005F0000E94740287E591E00E943A028AE390E04B
:100600000E9494018AE791E00E943A02C301B2017C
:100610000E94D10584E791E00E943A02C501B4012D
:100620000E94D1050115110559F181E791E00E9461
:100630003A028091C6029091C702892BF1F087E6B9
:1006400091E00E943A028091C6029091C7020E94F6
:100650003A028091C8029091C902892B51F08CE531
:1006600091E00E943A028091C8029091C9020E94D2
:100670003A0281E791E00E943A02C8010E943A02E0
:1006800081E090E0A0E0B0E08093DA029093DB029A
:10069000A093DC02B093DD0285E292E00E94680143
:1006A00061E070E082EE92E00E94E6071F910F91F8
:1006B000FF90EF90DF90CF90BF90AF909F908F9082
:1006C0007F906F905F904F90089510921B02109250
:1006D0001A0283E20E94B702E0911A02F0911B0213
:1006E000EE0FFF1FEE5FFE4F0190F081E02D81E3E2
:1006F000099520911A0230911B0240E050E095E1EB
:10070000C92ED12CE12CF12C00E010E061E070E06A
:1007100080E090E00E94C00246E150E060E070E0BE
:100720008AE891E00E94960261E070E082EE92E039
:100730000E94E60710921B0210921A0220910001FB
:100740003091010140E050E08EE1C82ED12CE12C27
:10075000F12C0AEA11E061E070E080E090E00E9494
:10076000C0024FE150E060E070E0C8010E949602D4
:1007700061E070E082EE92E00E94E6070E9451087C
:10078000CF93DF9300D0CDB7DEB79A838983E2ECB5
:10079000F2E073836283052E000C660B770B4087B3
:1007A00051876287738784859585A685B78501966D
:1007B000A11DB11D84879587A687B78715821482EE
:1007C0001782168282EE92E00E94C607892B19F4E6
:1007D000E981FA81099582EE92E00E94C607E2EC77
:1007E000F2E0848D958DA68DB78D892B8A2B8B2B6E
:1007F00061F084899589A689B7890196A11DB11DEB
:10080000848B958BA68BB78B20C0808D918DA28D0C
:10081000B38D892B8A2B8B2B69F44085518562859A
:100820007385808191810E94740288E091E00E942A
:100830003A020BC080899189A289B3890196A11DD2
:10084000B11D808B918BA28BB38BE2ECF2E0108E0A
:10085000118E128E138E148E158E168E178E8AE0C0
:1008600090E00E94940185E292E00E9468010F905E
:100870000F90DF91CF91089584E0E1E1F2E0DF0194
:100880001D928A95E9F71092100281E090E0909312
:1008900001018093000110921B0210921A02089528
:1008A00081E090E090931B0280931A020E943C0426
:1008B00020911A0230911B0240E050E08CE0C82EDB
:1008C000D12CE12CF12C00E010E060E070E0CB01D5
:1008D0000E94C0024DE050E060E070E08BEB91E0E0
:1008E0000E94960261E070E082EE92E00E94E607CC
:1008F0008A3291F08234E1F08332F9F481E192E0BE
:100900000E94A80724E0E1E1F2E0DF011D922A95B0
:10091000E9F7109210020895E0911002EE23C9F059
:10092000E150E0931002F0E0EF5EFD4F108211C045
:10093000109210028FEF9FEF0895E0911002E430C3
:1009400040F491E09E0F90931002F0E0EF5EFD4FB7
:10095000808380E090E00895CF93DF93CDB7DEB73A
:1009600028970FB6F894DEBF0FBECDBF20910001CF
:100970003091010122303105E1F02330310561F180
:100980002130310509F062C00E947804009709F413
:100990005DC08F3F2FEF920729F410921B02109237
:1009A0001A0254C08A30910508F050C08093150295
:1009B00047C00E947804009709F448C08F3F2FEF8A
:1009C000920719F481E090E03DC090931702809364
:1009D000160283E090E036C08A3291F1813329F427
:1009E000109219021092180208C0823331F481E08B
:1009F00090E09093190280931802809118029091D0
:100A00001902892B11F085E501C084E41F928F93B0
:100A1000809117028F93809116028F938CED91E055
:100A20009F938F93CE0101969F938F930E945608B8
:100A30000E943C040FB6F894DEBF0FBECDBF06C0C7
:100A400082E090E0909301018093000128960FB618
:100A5000F894DEBF0FBECDBFDF91CF9108951F92F6
:100A60000F920FB60F9211242F933F938F939F9362
:100A7000AF93BF9380911D0290911E02A0911F021F
:100A8000B091200230911C0223E0230F2D3720F477
:100A90000196A11DB11D05C026E8230F0296A11DD8
:100AA000B11D20931C0280931D0290931E02A093FF
:100AB0001F02B09320028091210290912202A09106
:100AC0002302B09124020196A11DB11D8093210241
:100AD00090932202A0932302B0932402BF91AF917E
:100AE0009F918F913F912F910F900FBE0F901F906C
:100AF00018951F920F920FB60F9211242F933F93C8
:100B00004F935F936F937F938F939F93AF93BF9315
:100B1000EF93FF9385E292E00E94F900FF91EF913D
:100B2000BF91AF919F918F917F916F915F914F9105
:100B30003F912F910F900FBE0F901F9018951F920D
:100B40000F920FB60F9211242F938F939F93EF93D1
:100B5000FF93E0913502F09136028081E0913B02F3
:100B6000F0913C0282FD12C0908180913E028F5F25
:100B70008F7320913F02821751F0E0913E02F0E026
:100B8000EB5DFD4F958F80933E0201C08081FF9108
:100B9000EF919F918F912F910F900FBE0F901F900B
:100BA00018950C941E02789484B5826084BD84B537
:100BB000816084BD85B5826085BD85B5816085BD58
:100BC00080916E00816080936E0010928100809110
:100BD0008100826080938100809181008160809398
:100BE0008100809180008160809380008091B100BD
:100BF00084608093B1008091B00081608093B000E8
:100C000080917A00846080937A0080917A0082607B
:100C100080937A0080917A00816080937A0080913D
:100C20007A00806880937A001092C1000E945F0071
:100C30004B015C0188EEC82E83E0D82EE12CF12C0C
:100C40000E945F00DC01CB0188199909AA09BB0940
:100C5000883E9340A105B10598F321E0C21AD1085E
:100C6000E108F10888EE880E83E0981EA11CB11CF3
:100C7000C114D104E104F10419F7E0913502F091B7
:100C8000360222E02083E0913102F091320210829C
:100C9000E0913302F09134028FEC808310923D0298
:100CA000E0913902F0913A0296E09083E0913702A8
:100CB000F0913802808180618083E0913702F09169
:100CC0003802808188608083E0913702F091380299
:100CD000808180688083E0913702F09138028081C2
:100CE0008F7D808345EE51E05093C3024093C20252
:100CF0001092C5021092C4021092CA021092CB0246
:100D00001092CC021092CD021092CE021092CF021D
:100D10001092D0021092D1021092D2021092D302FD
:100D20001092D4021092D5021092D6021092D702DD
:100D30001092D8021092D9021092DA021092DB02BD
:100D40001092DC021092DD021092DE021092DF029D
:100D50001092E0021092E1021092C7021092C602B5
:100D60001092C9021092C802E0913502F091360249
:100D70002083E0913102F09132021082E09133023F
:100D8000F091340280E1808310923D02E0913902BB
:100D9000F0913A029083E0913702F091380280811D
:100DA00080618083E0913702F09138028081886011
:100DB0008083E0913702F0913802808180688083DF
:100DC000E0913702F091380280818F7D808340E48A
:100DD00050E06AEF71E080E594E00E94C00341E4D6
:100DE00050E061E072E085E693E00E94C00342E4D7
:100DF00050E068E072E08AE993E00E94C0038AE074
:100E000090E00E9494018FE391E00E943A028AE010
:100E100090E00E9494016091CE027091CF02809187
:100E2000D0029091D1020E941E0287E391E00E94BD
:100E30003A026091D2027091D3028091D4029091D3
:100E4000D5020E941E028CE291E00E943A0260915B
:100E5000D6027091D7028091D8029091D9020E9457
:100E60001E0282E291E00E943A028AE090E00E9433
:100E700094018091D2029091D302A091D402B091BA
:100E8000D502892B8A2B8B2B19F48FE191E002C0BC
:100E900087E591E00E943A028AE090E00E94940186
:100EA00085E292E00E94680185E292E00E9468017A
:100EB000E0913702F091380280818F7E8083E0914B
:100EC0003702F09138028081877F8083E09137027A
:100ED000F091380280818F778083E0913702F09122
:100EE000380280818F7D808380913F0280933E0213
:100EF0000E948A016CCFE5E2F2E01382128288EE52
:100F000093E0A0E0B0E084839583A683B78381E17A
:100F100091E09183808385EC90E09587848784ECD1
:100F200090E09787868780EC90E0918B808B81ECB6
:100F300090E0938B828B82EC90E0958B848B86EC97
:100F400090E0978B868B118E128E138E148E0895DF
:100F5000FC0188279927E89421912032E9F3293070
:100F600010F02E30C8F32B3241F02D3239F4689452
:100F700004C00E940708820F911D219120532A303E
:100F8000C0F31EF4909581959F4F0895DC012D923A
:100F90003D924D925D926D927D928D929D92AD9219
:100FA000BD92CD92DD92ED92FD920D931D93CD9366
:100FB000DD93FF91EF918DB78D938EB78D938FB7A2
:100FC0008D93ED93FD93882799270994DC01CB013C
:100FD00081309105811D2D903D904D905D906D90DB
:100FE0007D908D909D90AD90BD90CD90DD90ED90D9
:100FF000FD900D911D91CD91DD91ED91FD910D90A3
:10100000F894FEBF0FBEEDBFED91FD9109947AE01B
:10101000979F902D879F802D910D11240895A1E217
:101020001A2EAA1BBB1BFD010DC0AA1FBB1FEE1F62
:10103000FF1FA217B307E407F50720F0A21BB30BAD
:10104000E40BF50B661F771F881F991F1A9469F729
:1010500060957095809590959B01AC01BD01CF0185
:1010600008950E944208A59F900DB49F900DA49FE3
:10107000800D911D11240895EE0FFF1F0590F4912E
:10108000E02D0994A29FB001B39FC001A39F700DF2
:10109000811D1124911DB29F700D811D1124911D80
:1010A000089581E090E0F8940C94400BAEE0B0E03D
:1010B000ECE5F8E00C94170B0D891E8986E08C8313
:1010C0001A8309838FEF9FE79E838D83AE01475E6E
:1010D0005F4F6F89788DCE0101960E947808EF816D
:1010E000F885E00FF11F10822E96E4E00C94330B8C
:1010F000ABE0B0E0EEE7F8E00C94090B6C017B018B
:101100008A01FC0117821682838181FFCCC1CE0146
:1011100001963C01F6019381F70193FD859193FFC0
:1011200081917F01882309F4BAC1853239F493FD96
:10113000859193FF81917F01853229F4B60190E07A
:101140000E946F0AE7CF912C212C312CFFE1F3157F
:10115000D8F08B3279F038F4803279F08332A1F410
:10116000232D20611DC08D3261F0803369F4232D61
:10117000216016C0832D8260382EE32DE4603E2E60
:101180002AC0F32DF8601DC037FC2DC020ED280FBC
:101190002A3040F08E32B9F436FC81C1232D206410
:1011A000322E19C036FE06C08AE0989E200D11240A
:1011B000922E11C0EAE02E9E200D1124222EF32D36
:1011C000F0623F2E08C08C3621F4832D8068382EC3
:1011D00002C0883641F4F70193FD859193FF819118
:1011E0007F018111B3CF982F9F7D9554933028F4C0
:1011F0000C5F1F4F9FE399830DC0833631F0833717
:1012000071F0833509F059C021C0F80180818983CC
:101210000E5F1F4F88248394912C530113C0280123
:10122000F2E04F0E511CF801A080B18036FE03C0E1
:10123000692D70E002C06FEF7FEFC5010E94640A64
:101240004C018201F32DFF773F2E16C0280122E0CA
:10125000420E511CF801A080B18036FE03C0692DFA
:1012600070E002C06FEF7FEFC5010E94590A4C0188
:10127000F32DF0683F2E820133FC1BC0822D90E0DD
:1012800088169906B0F4B60180E290E00E946F0AD9
:101290002A94F4CFF50137FC859137FE81915F01E7
:1012A000B60190E00E946F0A21102A9421E0821A70
:1012B00091088114910471F7E8C0843611F08936E1
:1012C00041F5F80137FE07C0608171818281938109
:1012D0000C5F1F4F08C060817181072E000C880BC6
:1012E000990B0E5F1F4FF32DFF763F2E97FF09C01E
:1012F00090958095709561957F4F8F4F9F4FF068C7
:101300003F2E2AE030E0A3010E94AB0A882E861807
:1013100045C0853731F4232D2F7EB22E2AE030E0F0
:1013200025C0932D997FB92E8F36C1F018F48835DA
:1013300079F0B5C0803719F0883721F0B0C0E92FB7
:10134000E061BE2EB4FE0DC0FB2DF460BF2E09C0BF
:1013500034FE0AC0292F2660B22E06C028E030E0F5
:1013600005C020E130E002C020E132E0F801B7FE24
:1013700007C060817181828193810C5F1F4F06C01D
:101380006081718180E090E00E5F1F4FA3010E9499
:10139000AB0A882E8618FB2DFF773F2E36FE0DC038
:1013A000232D2E7FA22E891458F434FE0BC032FC5C
:1013B00009C0832D8E7EA82E05C0B82CA32C03C097
:1013C000B82C01C0B92CA4FE0FC0FE01E80DF11D20
:1013D0008081803321F49A2D997EA92E09C0A2FE26
:1013E00006C0B394B39404C08A2D867809F0B394F0
:1013F000A3FC11C0A0FE06C0B21488F4280C922CE5
:101400009B180EC0B21460F4B60180E290E00E9416
:101410006F0AB394F7CFB21418F42B1802C0982CAB
:10142000212CA4FE10C0B60180E390E00E946F0A58
:10143000A2FE17C0A1FC03C088E790E002C088E5C7
:1014400090E0B6010CC08A2D867859F0A1FE02C04A
:101450008BE201C080E2A7FC8DE2B60190E00E9421
:101460006F0A891438F4B60180E390E00E946F0A95
:101470009A94F7CF8A94F301E80DF11D8081B601AB
:1014800090E00E946F0A8110F5CF222009F442CE2D
:10149000B60180E290E00E946F0A2A94F6CFF6012E
:1014A0008681978102C08FEF9FEF2B96E2E10C942B
:1014B000250BFC010590615070400110D8F7809514
:1014C00090958E0F9F1F0895FC0161507040019010
:1014D0000110D8F7809590958E0F9F1F08950F9358
:1014E0001F93CF93DF93FB01238121FD03C08FEF77
:1014F0009FEF2CC022FF16C0468157812481358181
:101500004217530744F4A081B1819D012F5F3F4FE3
:10151000318320838C93268137812F5F3F4F378320
:10152000268314C08B01EC01FB010084F185E02DC2
:101530000995892BE1F6D80116968D919C91179704
:10154000019617969C938E931697CE01DF91CF91BB
:101550001F910F910895FA01AA27283051F12031E7
:1015600081F1E8946F936E7F6E5F7F4F8F4F9F4F37
:10157000AF4FB1E03ED0B4E03CD0670F781F891F79
:101580009A1FA11D680F791F8A1F911DA11D6A0F47
:10159000711D811D911DA11D20D009F468943F91FA
:1015A0002AE0269F11243019305D3193DEF6CF01F9
:1015B0000895462F4770405D4193B3E00FD0C9F7BF
:1015C000F6CF462F4F70405D4A3318F0495D31FD2C
:1015D0004052419302D0A9F7EACFB4E0A69597957F
:1015E000879577956795BA95C9F700976105710555
:1015F00008959B01AC010A2E06945795479537959F
:101600002795BA95C9F7620F731F841F951FA01DF8
:1016100008952F923F924F925F926F927F928F9296
:101620009F92AF92BF92CF92DF92EF92FF920F9371
:101630001F93CF93DF93CDB7DEB7CA1BDB0B0FB67B
:10164000F894DEBF0FBECDBF09942A883988488838
:101650005F846E847D848C849B84AA84B984C884CE
:10166000DF80EE80FD800C811B81AA81B981CE0FC5
:10167000D11D0FB6F894DEBF0FBECDBFED010895AA
:04168000F894FFCF0C
:101684000100B702AC04B6025041535300000000FD
:10169400001B018400B2006801E300C100D5004FC3
:1016A4004B002049676E6F726564200020466169B3
:1016B4006C75726573200020546573747320002D5B
:1016C4002D2D2D2D2D2D2D2D2D2D2D2D2D2D2D2D46
:1016D4002D2D2D2D2D2D004641494C0020417267A2
:1016E400756D656E74200046756E6374696F6E2047
:1016F400002E200020576173200020457870656318
:101704007465642000494E464F00456E746572202E
:101714006D6F646520697320776F726B696E6720E3
:10172400766572792077656C6C0047657474696EB0
:101734006720536C61766520496400554E206163CF
:1017440074697661746520697320776F726B696E52
:101754006720766572792077656C6C004025642576
:101764006320202000746573745C746573745F680F
:10177400616D6164612E63707000546573745F31D0
:1017840000546573745F3200546573745F340000F1
:00000001FF
